{
  "contractName": "Voter",
  "abi": [
    {
      "constant": true,
      "inputs": [
        {
          "name": "",
          "type": "address"
        }
      ],
      "name": "voterMap",
      "outputs": [
        {
          "name": "",
          "type": "bool"
        }
      ],
      "payable": false,
      "stateMutability": "view",
      "type": "function"
    },
    {
      "constant": true,
      "inputs": [],
      "name": "candidatesCount",
      "outputs": [
        {
          "name": "",
          "type": "uint256"
        }
      ],
      "payable": false,
      "stateMutability": "view",
      "type": "function"
    },
    {
      "constant": true,
      "inputs": [
        {
          "name": "",
          "type": "uint256"
        }
      ],
      "name": "candidates",
      "outputs": [
        {
          "name": "candidateId",
          "type": "uint256"
        },
        {
          "name": "candidateName",
          "type": "string"
        },
        {
          "name": "candidateVotes",
          "type": "uint8"
        }
      ],
      "payable": false,
      "stateMutability": "view",
      "type": "function"
    },
    {
      "inputs": [],
      "payable": false,
      "stateMutability": "nonpayable",
      "type": "constructor"
    },
    {
      "anonymous": false,
      "inputs": [
        {
          "indexed": true,
          "name": "_candidateId",
          "type": "uint256"
        }
      ],
      "name": "votedEvent",
      "type": "event"
    },
    {
      "constant": false,
      "inputs": [
        {
          "name": "name",
          "type": "string"
        }
      ],
      "name": "populateCandidates",
      "outputs": [],
      "payable": false,
      "stateMutability": "nonpayable",
      "type": "function"
    },
    {
      "constant": false,
      "inputs": [
        {
          "name": "candidateId",
          "type": "uint256"
        }
      ],
      "name": "provideVotes",
      "outputs": [],
      "payable": false,
      "stateMutability": "nonpayable",
      "type": "function"
    }
  ],
  "bytecode": "0x608060405234801561001057600080fd5b5061005e6040805190810160405280600a81526020017f63616e64696461746531000000000000000000000000000000000000000000008152506100fd640100000000026401000000009004565b6100ab6040805190810160405280600a81526020017f63616e64696461746532000000000000000000000000000000000000000000008152506100fd640100000000026401000000009004565b6100f86040805190810160405280600a81526020017f63616e64696461746533000000000000000000000000000000000000000000008152506100fd640100000000026401000000009004565b610239565b6003600081548092919060010191905055506060604051908101604052806003548152602001828152602001600060ff1681525060026000600354815260200190815260200160002060008201518160000155602082015181600101908051906020019061016c929190610194565b5060408201518160020160006101000a81548160ff021916908360ff16021790555090505050565b828054600181600116156101000203166002900490600052602060002090601f016020900481019282601f106101d557805160ff1916838001178555610203565b82800160010185558215610203579182015b828111156102025782518255916020019190600101906101e7565b5b5090506102109190610214565b5090565b61023691905b8082111561023257600081600090555060010161021a565b5090565b90565b6105cc806102486000396000f30060806040526004361061006d576000357c0100000000000000000000000000000000000000000000000000000000900463ffffffff1680632be65225146100725780632d35a8a2146100cd5780633477ee2e146100f8578063bb22189d146101b2578063cfe282311461021b575b600080fd5b34801561007e57600080fd5b506100b3600480360381019080803573ffffffffffffffffffffffffffffffffffffffff169060200190929190505050610248565b604051808215151515815260200191505060405180910390f35b3480156100d957600080fd5b506100e2610268565b6040518082815260200191505060405180910390f35b34801561010457600080fd5b506101236004803603810190808035906020019092919050505061026e565b60405180848152602001806020018360ff1660ff168152602001828103825284818151815260200191508051906020019080838360005b8381101561017557808201518184015260208101905061015a565b50505050905090810190601f1680156101a25780820380516001836020036101000a031916815260200191505b5094505050505060405180910390f35b3480156101be57600080fd5b50610219600480360381019080803590602001908201803590602001908080601f016020809104026020016040519081016040528093929190818152602001838380828437820191505050505050919291929050505061033d565b005b34801561022757600080fd5b50610246600480360381019080803590602001909291905050506103d4565b005b60016020528060005260406000206000915054906101000a900460ff1681565b60035481565b6002602052806000526040600020600091509050806000015490806001018054600181600116156101000203166002900480601f0160208091040260200160405190810160405280929190818152602001828054600181600116156101000203166002900480156103205780601f106102f557610100808354040283529160200191610320565b820191906000526020600020905b81548152906001019060200180831161030357829003601f168201915b5050505050908060020160009054906101000a900460ff16905083565b6003600081548092919060010191905055506060604051908101604052806003548152602001828152602001600060ff168152506002600060035481526020019081526020016000206000820151816000015560208201518160010190805190602001906103ac9291906104fb565b5060408201518160020160006101000a81548160ff021916908360ff16021790555090505050565b60001515600160003373ffffffffffffffffffffffffffffffffffffffff1673ffffffffffffffffffffffffffffffffffffffff16815260200190815260200160002060009054906101000a900460ff16151514156104cb5760026000828152602001908152602001600020600201600081819054906101000a900460ff168092919060010191906101000a81548160ff021916908360ff1602179055505060018060003373ffffffffffffffffffffffffffffffffffffffff1673ffffffffffffffffffffffffffffffffffffffff16815260200190815260200160002060006101000a81548160ff0219169083151502179055505b807ffff3c900d938d21d0990d786e819f29b8d05c1ef587b462b939609625b684b1660405160405180910390a250565b828054600181600116156101000203166002900490600052602060002090601f016020900481019282601f1061053c57805160ff191683800117855561056a565b8280016001018555821561056a579182015b8281111561056957825182559160200191906001019061054e565b5b509050610577919061057b565b5090565b61059d91905b80821115610599576000816000905550600101610581565b5090565b905600a165627a7a72305820f88257991174a8809d62289f1cb7ea6dcce53e3a9f2c903808b2f27a058eb5850029",
  "source": "pragma solidity ^0.4.0;\n\ncontract Voter {\n\n    address chairperson;\n    mapping(address => bool) public voterMap;\n    \n    struct Candidate{\n        uint candidateId;\n        string candidateName;\n        uint8 candidateVotes;\n    }\n    \n    // string public candidate;\n    mapping(uint => Candidate) public candidates;\n    \n    uint public candidatesCount;\n    \n    constructor() public {\n        // candidate = \"Aman\";\n        populateCandidates(\"candidate1\");\n        populateCandidates(\"candidate2\");\n        populateCandidates(\"candidate3\");\n    }\n    \n    // voted event\n    // event votedEvent (\n    //     uint indexed _candidateId\n    // );\n    //populate candidateList\n\n    event votedEvent (\n        uint indexed _candidateId\n    );\n\n    function populateCandidates(string name) public{\n        candidatesCount++;\n        candidates[candidatesCount] = Candidate(candidatesCount, name, 0);\n    }\n\n    //function for voting\n    function provideVotes(uint candidateId) public{\n        if(voterMap[msg.sender]==false)\n        {\n            candidates[candidateId].candidateVotes++;\n            voterMap[msg.sender] = true;\n        }\n        votedEvent(candidateId);\n    }\n}",
  "sourcePath": "/Users/amanjadon/Desktop/ElectioTestHomeOwn/contracts/Voter.sol",
  "compiler": {
    "name": "solc",
    "version": "0.4.24+commit.e67f0147.Emscripten.clang"
  },
  "schemaVersion": "2.0.1",
  "updatedAt": "2018-07-08T15:08:01.439Z"
}